{
  "_format": "hh-sol-artifact-1",
  "contractName": "StakingInitializable",
  "sourceName": "contracts/farming/StakingFactoryPool.sol",
  "abi": [
    {
      "inputs": [],
      "stateMutability": "nonpayable",
      "type": "constructor"
    },
    {
      "anonymous": false,
      "inputs": [
        {
          "indexed": true,
          "internalType": "address",
          "name": "user",
          "type": "address"
        },
        {
          "indexed": false,
          "internalType": "uint256",
          "name": "amount",
          "type": "uint256"
        }
      ],
      "name": "Deposit",
      "type": "event"
    },
    {
      "anonymous": false,
      "inputs": [
        {
          "indexed": true,
          "internalType": "address",
          "name": "user",
          "type": "address"
        },
        {
          "indexed": false,
          "internalType": "uint256",
          "name": "amount",
          "type": "uint256"
        }
      ],
      "name": "EmergencyWithdraw",
      "type": "event"
    },
    {
      "anonymous": false,
      "inputs": [
        {
          "indexed": false,
          "internalType": "uint256",
          "name": "poolLimitPerUser",
          "type": "uint256"
        }
      ],
      "name": "NewPoolLimit",
      "type": "event"
    },
    {
      "anonymous": false,
      "inputs": [
        {
          "indexed": false,
          "internalType": "uint256",
          "name": "rewardPerBlock",
          "type": "uint256"
        }
      ],
      "name": "NewRewardPerBlock",
      "type": "event"
    },
    {
      "anonymous": false,
      "inputs": [
        {
          "indexed": false,
          "internalType": "uint256",
          "name": "startBlock",
          "type": "uint256"
        },
        {
          "indexed": false,
          "internalType": "uint256",
          "name": "endBlock",
          "type": "uint256"
        }
      ],
      "name": "NewStartAndEndBlocks",
      "type": "event"
    },
    {
      "anonymous": false,
      "inputs": [
        {
          "indexed": true,
          "internalType": "address",
          "name": "previousOwner",
          "type": "address"
        },
        {
          "indexed": true,
          "internalType": "address",
          "name": "newOwner",
          "type": "address"
        }
      ],
      "name": "OwnershipTransferred",
      "type": "event"
    },
    {
      "anonymous": false,
      "inputs": [
        {
          "indexed": false,
          "internalType": "uint256",
          "name": "blockNumber",
          "type": "uint256"
        }
      ],
      "name": "RewardsStop",
      "type": "event"
    },
    {
      "anonymous": false,
      "inputs": [
        {
          "indexed": true,
          "internalType": "address",
          "name": "token",
          "type": "address"
        },
        {
          "indexed": false,
          "internalType": "uint256",
          "name": "amount",
          "type": "uint256"
        }
      ],
      "name": "TokenRecovery",
      "type": "event"
    },
    {
      "anonymous": false,
      "inputs": [
        {
          "indexed": true,
          "internalType": "address",
          "name": "user",
          "type": "address"
        },
        {
          "indexed": false,
          "internalType": "uint256",
          "name": "amount",
          "type": "uint256"
        }
      ],
      "name": "Withdraw",
      "type": "event"
    },
    {
      "inputs": [],
      "name": "PRECISION_FACTOR",
      "outputs": [
        {
          "internalType": "uint256",
          "name": "",
          "type": "uint256"
        }
      ],
      "stateMutability": "view",
      "type": "function"
    },
    {
      "inputs": [],
      "name": "STAKING_FACTORY",
      "outputs": [
        {
          "internalType": "address",
          "name": "",
          "type": "address"
        }
      ],
      "stateMutability": "view",
      "type": "function"
    },
    {
      "inputs": [
        {
          "internalType": "uint256",
          "name": "_amount",
          "type": "uint256"
        }
      ],
      "name": "deposit",
      "outputs": [],
      "stateMutability": "nonpayable",
      "type": "function"
    },
    {
      "inputs": [
        {
          "internalType": "uint256",
          "name": "_amount",
          "type": "uint256"
        }
      ],
      "name": "emergencyRewardWithdraw",
      "outputs": [],
      "stateMutability": "nonpayable",
      "type": "function"
    },
    {
      "inputs": [],
      "name": "emergencyWithdraw",
      "outputs": [],
      "stateMutability": "nonpayable",
      "type": "function"
    },
    {
      "inputs": [],
      "name": "hasUserLimit",
      "outputs": [
        {
          "internalType": "bool",
          "name": "",
          "type": "bool"
        }
      ],
      "stateMutability": "view",
      "type": "function"
    },
    {
      "inputs": [
        {
          "internalType": "address",
          "name": "_stakedToken",
          "type": "address"
        },
        {
          "internalType": "address",
          "name": "_rewardToken",
          "type": "address"
        },
        {
          "internalType": "uint256",
          "name": "_rewardPerBlock",
          "type": "uint256"
        },
        {
          "internalType": "uint256",
          "name": "_startBlock",
          "type": "uint256"
        },
        {
          "internalType": "uint256",
          "name": "_rewardEndBlock",
          "type": "uint256"
        },
        {
          "internalType": "uint256",
          "name": "_poolLimitPerUser",
          "type": "uint256"
        },
        {
          "internalType": "uint256",
          "name": "_numberBlocksForUserLimit",
          "type": "uint256"
        },
        {
          "internalType": "address",
          "name": "_multisig",
          "type": "address"
        }
      ],
      "name": "initialize",
      "outputs": [],
      "stateMutability": "nonpayable",
      "type": "function"
    },
    {
      "inputs": [],
      "name": "owner",
      "outputs": [
        {
          "internalType": "address",
          "name": "",
          "type": "address"
        }
      ],
      "stateMutability": "view",
      "type": "function"
    },
    {
      "inputs": [
        {
          "internalType": "address",
          "name": "_user",
          "type": "address"
        }
      ],
      "name": "pendingReward",
      "outputs": [
        {
          "internalType": "uint256",
          "name": "",
          "type": "uint256"
        }
      ],
      "stateMutability": "view",
      "type": "function"
    },
    {
      "inputs": [],
      "name": "pool",
      "outputs": [
        {
          "internalType": "bool",
          "name": "isInitialized",
          "type": "bool"
        },
        {
          "internalType": "address",
          "name": "stakedToken",
          "type": "address"
        },
        {
          "internalType": "bool",
          "name": "userLimit",
          "type": "bool"
        },
        {
          "internalType": "address",
          "name": "rewardToken",
          "type": "address"
        },
        {
          "internalType": "uint64",
          "name": "startBlock",
          "type": "uint64"
        },
        {
          "internalType": "uint64",
          "name": "rewardEndBlock",
          "type": "uint64"
        },
        {
          "internalType": "uint64",
          "name": "lastRewardBlock",
          "type": "uint64"
        },
        {
          "internalType": "uint64",
          "name": "numberBlocksForUserLimit",
          "type": "uint64"
        },
        {
          "internalType": "uint256",
          "name": "poolLimitPerUser",
          "type": "uint256"
        },
        {
          "internalType": "uint256",
          "name": "accTokenPerShare",
          "type": "uint256"
        },
        {
          "internalType": "uint256",
          "name": "rewardPerBlock",
          "type": "uint256"
        },
        {
          "internalType": "uint256",
          "name": "totalStaked",
          "type": "uint256"
        }
      ],
      "stateMutability": "view",
      "type": "function"
    },
    {
      "inputs": [
        {
          "internalType": "address",
          "name": "_token",
          "type": "address"
        }
      ],
      "name": "recoverToken",
      "outputs": [],
      "stateMutability": "nonpayable",
      "type": "function"
    },
    {
      "inputs": [],
      "name": "renounceOwnership",
      "outputs": [],
      "stateMutability": "nonpayable",
      "type": "function"
    },
    {
      "inputs": [],
      "name": "stopReward",
      "outputs": [],
      "stateMutability": "nonpayable",
      "type": "function"
    },
    {
      "inputs": [
        {
          "internalType": "address",
          "name": "newOwner",
          "type": "address"
        }
      ],
      "name": "transferOwnership",
      "outputs": [],
      "stateMutability": "nonpayable",
      "type": "function"
    },
    {
      "inputs": [
        {
          "internalType": "bool",
          "name": "_userLimit",
          "type": "bool"
        },
        {
          "internalType": "uint256",
          "name": "_poolLimitPerUser",
          "type": "uint256"
        }
      ],
      "name": "updatePoolLimitPerUser",
      "outputs": [],
      "stateMutability": "nonpayable",
      "type": "function"
    },
    {
      "inputs": [
        {
          "internalType": "uint256",
          "name": "_rewardPerBlock",
          "type": "uint256"
        }
      ],
      "name": "updateRewardPerBlock",
      "outputs": [],
      "stateMutability": "nonpayable",
      "type": "function"
    },
    {
      "inputs": [
        {
          "internalType": "uint256",
          "name": "_startBlock",
          "type": "uint256"
        },
        {
          "internalType": "uint256",
          "name": "_rewardEndBlock",
          "type": "uint256"
        }
      ],
      "name": "updateStartAndEndBlocks",
      "outputs": [],
      "stateMutability": "nonpayable",
      "type": "function"
    },
    {
      "inputs": [
        {
          "internalType": "address",
          "name": "",
          "type": "address"
        }
      ],
      "name": "userInfo",
      "outputs": [
        {
          "internalType": "uint256",
          "name": "amount",
          "type": "uint256"
        },
        {
          "internalType": "uint256",
          "name": "rewardDebt",
          "type": "uint256"
        }
      ],
      "stateMutability": "view",
      "type": "function"
    },
    {
      "inputs": [
        {
          "internalType": "uint256",
          "name": "_amount",
          "type": "uint256"
        }
      ],
      "name": "withdraw",
      "outputs": [],
      "stateMutability": "nonpayable",
      "type": "function"
    }
  ],
  "bytecode": "0x60a060405234801561001057600080fd5b5061001a33610027565b6001805533608052610077565b600080546001600160a01b038381166001600160a01b0319831681178455604051919092169283917f8be0079c531659141344cd1fd0a4f28419497f9722a3daafe3b4186f6b6457e09190a35050565b608051611bdb6100996000396000818161032801526104b80152611bdb6000f3fe608060405234801561001057600080fd5b50600436106101215760003560e01c806392e8990e116100ad578063b6b55f2511610071578063b6b55f251461034a578063ccd34cd51461035d578063db2e21bc14610374578063f2fde38b1461037c578063f40f0f521461038f57600080fd5b806392e8990e146102d25780639513997f146102ea5780639be65a60146102fd578063a0b4090514610310578063aac551e11461032357600080fd5b80632e1a7d4d116100f45780632e1a7d4d146102775780633279beab1461028a578063715018a61461029d57806380dc0672146102a55780638da5cb5b146102ad57600080fd5b806301f8a9761461012657806316f0115b1461013b5780631959a002146102285780632aa2c38114610264575b600080fd5b6101396101343660046117dd565b6103a2565b005b6003546004546005546006546007546008546009546101aa9660ff808216976001600160a01b036101008404811698600160a81b90940490921696918116956001600160401b03600160a01b90920482169584831695600160401b8604841695600160801b900490931693928c565b604080519c15158d526001600160a01b039b8c1660208e0152991515998c01999099529890961660608a01526001600160401b0394851660808a015292841660a089015290831660c08801529190911660e0860152610100850152610120840152610140830191909152610160820152610180015b60405180910390f35b61024f610236366004611812565b600a602052600090815260409020805460019091015482565b6040805192835260208301919091520161021f565b610139610272366004611834565b610464565b6101396102853660046117dd565b61071f565b6101396102983660046117dd565b6108a8565b6101396108ec565b610139610922565b6000546001600160a01b03165b6040516001600160a01b03909116815260200161021f565b6102da6109aa565b604051901515815260200161021f565b6101396102f83660046118a8565b610a09565b61013961030b366004611812565b610c27565b61013961031e3660046118d8565b610e4e565b6102ba7f000000000000000000000000000000000000000000000000000000000000000081565b6101396103583660046117dd565b610f70565b61036660025481565b60405190815260200161021f565b61013961113e565b61013961038a366004611812565b6111e5565b61036661039d366004611812565b61127d565b6000546001600160a01b031633146103d55760405162461bcd60e51b81526004016103cc90611904565b60405180910390fd5b600454600160a01b90046001600160401b031643106104295760405162461bcd60e51b815260206004820152601060248201526f141bdbdb081a185cc81cdd185c9d195960821b60448201526064016103cc565b60088190556040518181527f0c4d677eef92893ac7ec52faf8140fc6c851ab4736302b4f3a89dfb20696a0df9060200160405180910390a150565b60035460ff16156104ad5760405162461bcd60e51b8152602060048201526013602482015272105b1c9958591e481a5b9a5d1a585b1a5e9959606a1b60448201526064016103cc565b336001600160a01b037f000000000000000000000000000000000000000000000000000000000000000016146105135760405162461bcd60e51b815260206004820152600b60248201526a4e6f7420666163746f727960a81b60448201526064016103cc565b600380546001600160a01b03808b16610100026001600160a81b031990921691909117600117909155600480549189166001600160a01b031990921691909117905561055e85611386565b600480546001600160401b0392909216600160a01b0267ffffffffffffffff60a01b1990921691909117905561059384611386565b6005805467ffffffffffffffff19166001600160401b03929092169190911790556105bd85611386565b600580546001600160401b0392909216600160401b0267ffffffffffffffff60401b1990921691909117905560088690558215610642576003805460ff60a81b1916600160a81b179055600683905561061582611386565b600580546001600160401b0392909216600160801b0267ffffffffffffffff60801b199092169190911790555b6000876001600160a01b031663313ce5676040518163ffffffff1660e01b8152600401602060405180830381865afa158015610682573d6000803e3d6000fd5b505050506040513d601f19601f820116820180604052508101906106a69190611939565b60ff169050601e81106106f25760405162461bcd60e51b815260206004820152601460248201527304d757374206265206c657373207468616e2033360641b60448201526064016103cc565b6106fd81601e611972565b61070890600a611a6d565b600255610714826111e5565b505050505050505050565b600260015414156107425760405162461bcd60e51b81526004016103cc90611a79565b6002600155336000908152600a6020526040902080548211156107a75760405162461bcd60e51b815260206004820152601b60248201527f416d6f756e7420746f20776974686472617720746f6f2068696768000000000060448201526064016103cc565b6107af6113f2565b6007546001820154600254835460009291906107cc908590611ab0565b6107d69190611acf565b6107e09190611972565b9050831561082d5782546107f5908590611972565b83556009805485919060009061080c908490611972565b909155505060035461082d9061010090046001600160a01b031633866114e5565b801561084a5760045461084a906001600160a01b031633836114e5565b600254835461085a908490611ab0565b6108649190611acf565b600184015560405184815233907f884edad9ce6fa2440d8a54cc123490eb96d2768479d49ff9c7366125a94243649060200160405180910390a25050600180555050565b6000546001600160a01b031633146108d25760405162461bcd60e51b81526004016103cc90611904565b6004546108e9906001600160a01b031633836114e5565b50565b6000546001600160a01b031633146109165760405162461bcd60e51b81526004016103cc90611904565b6109206000611600565b565b6000546001600160a01b0316331461094c5760405162461bcd60e51b81526004016103cc90611904565b61095543611386565b6005805467ffffffffffffffff19166001600160401b039290921691821790556040519081527ffed9fcb0ca3d1e761a4b929792bb24082fba92dca81252646ad306d3068065669060200160405180910390a1565b600354600090600160a81b900460ff1615806109f857506005546004546109eb916001600160401b03600160801b909104811691600160a01b900416611af1565b6001600160401b03164310155b15610a035750600090565b50600190565b6000546001600160a01b03163314610a335760405162461bcd60e51b81526004016103cc90611904565b600454600160a01b90046001600160401b03164310610a875760405162461bcd60e51b815260206004820152601060248201526f141bdbdb081a185cc81cdd185c9d195960821b60448201526064016103cc565b808210610aed5760405162461bcd60e51b815260206004820152602e60248201527f4e6577207374617274426c6f636b206d757374206265206c6f7765722074686160448201526d6e206e657720656e64426c6f636b60901b60648201526084016103cc565b814310610b555760405162461bcd60e51b815260206004820152603060248201527f4e6577207374617274426c6f636b206d7573742062652068696768657220746860448201526f616e2063757272656e7420626c6f636b60801b60648201526084016103cc565b610b5e82611386565b600480546001600160401b0392909216600160a01b0267ffffffffffffffff60a01b19909216919091179055610b9381611386565b6005805467ffffffffffffffff19166001600160401b0392909216919091179055610bbd82611386565b600580546001600160401b0392909216600160401b0267ffffffffffffffff60401b1990921691909117905560408051838152602081018390527f7cd0ab87d19036f3dfadadb232c78aa4879dda3f0c994a9d637532410ee2ce0691015b60405180910390a15050565b6000546001600160a01b03163314610c515760405162461bcd60e51b81526004016103cc90611904565b6003546001600160a01b03828116610100909204161415610cc45760405162461bcd60e51b815260206004820152602760248201527f4f7065726174696f6e733a2043616e6e6f74207265636f766572207374616b6560448201526632103a37b5b2b760c91b60648201526084016103cc565b6004546001600160a01b0382811691161415610d325760405162461bcd60e51b815260206004820152602760248201527f4f7065726174696f6e733a2043616e6e6f74207265636f76657220726577617260448201526632103a37b5b2b760c91b60648201526084016103cc565b6040516370a0823160e01b81523060048201526000906001600160a01b038316906370a0823190602401602060405180830381865afa158015610d79573d6000803e3d6000fd5b505050506040513d601f19601f82011682018060405250810190610d9d9190611b1c565b905080610dfc5760405162461bcd60e51b815260206004820152602760248201527f4f7065726174696f6e733a2043616e6e6f74207265636f766572207a65726f2060448201526662616c616e636560c81b60648201526084016103cc565b610e078233836114e5565b816001600160a01b03167f14f11966a996e0629572e51064726d2057a80fbd34efc066682c06a71dbb6e9882604051610e4291815260200190565b60405180910390a25050565b6000546001600160a01b03163314610e785760405162461bcd60e51b81526004016103cc90611904565b600354600160a81b900460ff16610ebf5760405162461bcd60e51b815260206004820152600b60248201526a135d5cdd081899481cd95d60aa1b60448201526064016103cc565b8115610f20576006548111610f165760405162461bcd60e51b815260206004820152601860248201527f4e6577206c696d6974206d75737420626520686967686572000000000000000060448201526064016103cc565b6006819055610f3d565b6003805460ff60a81b1916600160a81b8415150217905560006006555b6006546040519081527f241f67ee5f41b7a5cabf911367329be7215900f602ebfc47f89dce2a6bcd847c90602001610c1b565b60026001541415610f935760405162461bcd60e51b81526004016103cc90611a79565b6002600155336000908152600a60205260409020610faf6109aa565b6003805460ff60a81b1916600160a81b9215158302179081905560ff919004161580610fe857506006548154610fe59084611b35565b11155b6110345760405162461bcd60e51b815260206004820152601b60248201527f4465706f7369743a20416d6f756e742061626f7665206c696d6974000000000060448201526064016103cc565b61103c6113f2565b60075481541561109557600082600101546002548385600001546110609190611ab0565b61106a9190611acf565b6110749190611972565b9050801561109357600454611093906001600160a01b031633836114e5565b505b82156110e15781546110a8908490611b35565b8255600980548491906000906110bf908490611b35565b90915550506003546110e19061010090046001600160a01b0316333086611650565b60025482546110f1908390611ab0565b6110fb9190611acf565b600183015560405183815233907fe1fffcc4923d04b559f4d29a8bfc6cda04eb5b0d3c460751c2402c5c5cc9109c9060200160405180910390a250506001805550565b600260015414156111615760405162461bcd60e51b81526004016103cc90611a79565b60026001908155336000908152600a602052604081208054828255928101919091559080156111a6576003546111a69061010090046001600160a01b031633836114e5565b815460405190815233907f5fafa99d0643513820be26656b45130b01e1c03062e1266bf36f88cbd3bd96959060200160405180910390a2505060018055565b6000546001600160a01b0316331461120f5760405162461bcd60e51b81526004016103cc90611904565b6001600160a01b0381166112745760405162461bcd60e51b815260206004820152602660248201527f4f776e61626c653a206e6577206f776e657220697320746865207a65726f206160448201526564647265737360d01b60648201526084016103cc565b6108e981611600565b6001600160a01b0381166000908152600a60205260408120600954600754600554600160401b90046001600160401b0316431180156112bb57508115155b15611354576005546000906112e090600160401b90046001600160401b031643611780565b6008549091506000906112f39083611ab0565b9050600084600254836113069190611ab0565b6113109190611acf565b61131a9085611b35565b905085600101546002548288600001546113349190611ab0565b61133e9190611acf565b6113489190611972565b98975050505050505050565b60018301546002548454611369908490611ab0565b6113739190611acf565b61137d9190611972565b95945050505050565b60006001600160401b038211156113ee5760405162461bcd60e51b815260206004820152602660248201527f53616665436173743a2076616c756520646f65736e27742066697420696e203660448201526534206269747360d01b60648201526084016103cc565b5090565b600554600160401b90046001600160401b0316431161140d57565b6009548061144d5761141e43611386565b600580546001600160401b0392909216600160401b0267ffffffffffffffff60401b1990921691909117905550565b60055460009061146d90600160401b90046001600160401b031643611780565b6008549091506000906114809083611ab0565b905082600254826114919190611ab0565b61149b9190611acf565b6007546114a89190611b35565b6007556114b443611386565b600580546001600160401b0392909216600160401b0267ffffffffffffffff60401b19909216919091179055505050565b604080516001600160a01b038481166024830152604480830185905283518084039091018152606490920183526020820180516001600160e01b031663a9059cbb60e01b17905291516000928392908716916115419190611b4d565b6000604051808303816000865af19150503d806000811461157e576040519150601f19603f3d011682016040523d82523d6000602084013e611583565b606091505b50915091508180156115ad5750805115806115ad5750808060200190518101906115ad9190611b88565b6115f95760405162461bcd60e51b815260206004820152601f60248201527f5472616e7366657248656c7065723a205452414e534645525f4641494c45440060448201526064016103cc565b5050505050565b600080546001600160a01b038381166001600160a01b0319831681178455604051919092169283917f8be0079c531659141344cd1fd0a4f28419497f9722a3daafe3b4186f6b6457e09190a35050565b604080516001600160a01b0385811660248301528481166044830152606480830185905283518084039091018152608490920183526020820180516001600160e01b03166323b872dd60e01b17905291516000928392908816916116b49190611b4d565b6000604051808303816000865af19150503d80600081146116f1576040519150601f19603f3d011682016040523d82523d6000602084013e6116f6565b606091505b50915091508180156117205750805115806117205750808060200190518101906117209190611b88565b6117785760405162461bcd60e51b8152602060048201526024808201527f5472616e7366657248656c7065723a205452414e534645525f46524f4d5f46416044820152631253115160e21b60648201526084016103cc565b505050505050565b6005546000906001600160401b031682116117a65761179f8383611972565b90506117d7565b6005546001600160401b031683106117c0575060006117d7565b60055461179f9084906001600160401b0316611972565b92915050565b6000602082840312156117ef57600080fd5b5035919050565b80356001600160a01b038116811461180d57600080fd5b919050565b60006020828403121561182457600080fd5b61182d826117f6565b9392505050565b600080600080600080600080610100898b03121561185157600080fd5b61185a896117f6565b975061186860208a016117f6565b965060408901359550606089013594506080890135935060a0890135925060c0890135915061189960e08a016117f6565b90509295985092959890939650565b600080604083850312156118bb57600080fd5b50508035926020909101359150565b80151581146108e957600080fd5b600080604083850312156118eb57600080fd5b82356118f6816118ca565b946020939093013593505050565b6020808252818101527f4f776e61626c653a2063616c6c6572206973206e6f7420746865206f776e6572604082015260600190565b60006020828403121561194b57600080fd5b815160ff8116811461182d57600080fd5b634e487b7160e01b600052601160045260246000fd5b6000828210156119845761198461195c565b500390565b600181815b808511156119c45781600019048211156119aa576119aa61195c565b808516156119b757918102915b93841c939080029061198e565b509250929050565b6000826119db575060016117d7565b816119e8575060006117d7565b81600181146119fe5760028114611a0857611a24565b60019150506117d7565b60ff841115611a1957611a1961195c565b50506001821b6117d7565b5060208310610133831016604e8410600b8410161715611a47575081810a6117d7565b611a518383611989565b8060001904821115611a6557611a6561195c565b029392505050565b600061182d83836119cc565b6020808252601f908201527f5265656e7472616e637947756172643a207265656e7472616e742063616c6c00604082015260600190565b6000816000190483118215151615611aca57611aca61195c565b500290565b600082611aec57634e487b7160e01b600052601260045260246000fd5b500490565b60006001600160401b03808316818516808303821115611b1357611b1361195c565b01949350505050565b600060208284031215611b2e57600080fd5b5051919050565b60008219821115611b4857611b4861195c565b500190565b6000825160005b81811015611b6e5760208186018101518583015201611b54565b81811115611b7d576000828501525b509190910192915050565b600060208284031215611b9a57600080fd5b815161182d816118ca56fea26469706673582212206a24445db575ea27169a670dc7a822529efef2e5556e46f9fbd806c101e0290e64736f6c634300080c0033",
  "linkReferences": {},
  "deployedLinkReferences": {}
}