{
  "_format": "hh-sol-artifact-1",
  "contractName": "DexKIP7",
  "sourceName": "contracts/swap/DexKIP7.sol",
  "abi": [
    {
      "inputs": [],
      "stateMutability": "nonpayable",
      "type": "constructor"
    },
    {
      "anonymous": false,
      "inputs": [
        {
          "indexed": true,
          "internalType": "address",
          "name": "owner",
          "type": "address"
        },
        {
          "indexed": true,
          "internalType": "address",
          "name": "spender",
          "type": "address"
        },
        {
          "indexed": false,
          "internalType": "uint256",
          "name": "value",
          "type": "uint256"
        }
      ],
      "name": "Approval",
      "type": "event"
    },
    {
      "anonymous": false,
      "inputs": [
        {
          "indexed": true,
          "internalType": "address",
          "name": "from",
          "type": "address"
        },
        {
          "indexed": true,
          "internalType": "address",
          "name": "to",
          "type": "address"
        },
        {
          "indexed": false,
          "internalType": "uint256",
          "name": "value",
          "type": "uint256"
        }
      ],
      "name": "Transfer",
      "type": "event"
    },
    {
      "inputs": [],
      "name": "DOMAIN_SEPARATOR",
      "outputs": [
        {
          "internalType": "bytes32",
          "name": "",
          "type": "bytes32"
        }
      ],
      "stateMutability": "view",
      "type": "function"
    },
    {
      "inputs": [],
      "name": "PERMIT_TYPEHASH",
      "outputs": [
        {
          "internalType": "bytes32",
          "name": "",
          "type": "bytes32"
        }
      ],
      "stateMutability": "view",
      "type": "function"
    },
    {
      "inputs": [
        {
          "internalType": "address",
          "name": "",
          "type": "address"
        },
        {
          "internalType": "address",
          "name": "",
          "type": "address"
        }
      ],
      "name": "allowance",
      "outputs": [
        {
          "internalType": "uint256",
          "name": "",
          "type": "uint256"
        }
      ],
      "stateMutability": "view",
      "type": "function"
    },
    {
      "inputs": [
        {
          "internalType": "address",
          "name": "spender",
          "type": "address"
        },
        {
          "internalType": "uint256",
          "name": "amount",
          "type": "uint256"
        }
      ],
      "name": "approve",
      "outputs": [
        {
          "internalType": "bool",
          "name": "",
          "type": "bool"
        }
      ],
      "stateMutability": "nonpayable",
      "type": "function"
    },
    {
      "inputs": [
        {
          "internalType": "address",
          "name": "",
          "type": "address"
        }
      ],
      "name": "balanceOf",
      "outputs": [
        {
          "internalType": "uint256",
          "name": "",
          "type": "uint256"
        }
      ],
      "stateMutability": "view",
      "type": "function"
    },
    {
      "inputs": [],
      "name": "decimals",
      "outputs": [
        {
          "internalType": "uint8",
          "name": "",
          "type": "uint8"
        }
      ],
      "stateMutability": "view",
      "type": "function"
    },
    {
      "inputs": [],
      "name": "name",
      "outputs": [
        {
          "internalType": "string",
          "name": "",
          "type": "string"
        }
      ],
      "stateMutability": "view",
      "type": "function"
    },
    {
      "inputs": [
        {
          "internalType": "address",
          "name": "",
          "type": "address"
        }
      ],
      "name": "nonces",
      "outputs": [
        {
          "internalType": "uint256",
          "name": "",
          "type": "uint256"
        }
      ],
      "stateMutability": "view",
      "type": "function"
    },
    {
      "inputs": [
        {
          "internalType": "address",
          "name": "owner",
          "type": "address"
        },
        {
          "internalType": "address",
          "name": "spender",
          "type": "address"
        },
        {
          "internalType": "uint256",
          "name": "value",
          "type": "uint256"
        },
        {
          "internalType": "uint256",
          "name": "deadline",
          "type": "uint256"
        },
        {
          "internalType": "uint8",
          "name": "v",
          "type": "uint8"
        },
        {
          "internalType": "bytes32",
          "name": "r",
          "type": "bytes32"
        },
        {
          "internalType": "bytes32",
          "name": "s",
          "type": "bytes32"
        }
      ],
      "name": "permit",
      "outputs": [],
      "stateMutability": "nonpayable",
      "type": "function"
    },
    {
      "inputs": [
        {
          "internalType": "address",
          "name": "recipient",
          "type": "address"
        },
        {
          "internalType": "uint256",
          "name": "amount",
          "type": "uint256"
        }
      ],
      "name": "safeTransfer",
      "outputs": [],
      "stateMutability": "nonpayable",
      "type": "function"
    },
    {
      "inputs": [
        {
          "internalType": "address",
          "name": "recipient",
          "type": "address"
        },
        {
          "internalType": "uint256",
          "name": "amount",
          "type": "uint256"
        },
        {
          "internalType": "bytes",
          "name": "data",
          "type": "bytes"
        }
      ],
      "name": "safeTransfer",
      "outputs": [],
      "stateMutability": "nonpayable",
      "type": "function"
    },
    {
      "inputs": [
        {
          "internalType": "address",
          "name": "sender",
          "type": "address"
        },
        {
          "internalType": "address",
          "name": "recipient",
          "type": "address"
        },
        {
          "internalType": "uint256",
          "name": "amount",
          "type": "uint256"
        }
      ],
      "name": "safeTransferFrom",
      "outputs": [],
      "stateMutability": "nonpayable",
      "type": "function"
    },
    {
      "inputs": [
        {
          "internalType": "address",
          "name": "sender",
          "type": "address"
        },
        {
          "internalType": "address",
          "name": "recipient",
          "type": "address"
        },
        {
          "internalType": "uint256",
          "name": "amount",
          "type": "uint256"
        },
        {
          "internalType": "bytes",
          "name": "data",
          "type": "bytes"
        }
      ],
      "name": "safeTransferFrom",
      "outputs": [],
      "stateMutability": "nonpayable",
      "type": "function"
    },
    {
      "inputs": [
        {
          "internalType": "bytes4",
          "name": "interfaceId",
          "type": "bytes4"
        }
      ],
      "name": "supportsInterface",
      "outputs": [
        {
          "internalType": "bool",
          "name": "",
          "type": "bool"
        }
      ],
      "stateMutability": "view",
      "type": "function"
    },
    {
      "inputs": [],
      "name": "symbol",
      "outputs": [
        {
          "internalType": "string",
          "name": "",
          "type": "string"
        }
      ],
      "stateMutability": "view",
      "type": "function"
    },
    {
      "inputs": [],
      "name": "totalSupply",
      "outputs": [
        {
          "internalType": "uint256",
          "name": "",
          "type": "uint256"
        }
      ],
      "stateMutability": "view",
      "type": "function"
    },
    {
      "inputs": [
        {
          "internalType": "address",
          "name": "to",
          "type": "address"
        },
        {
          "internalType": "uint256",
          "name": "amount",
          "type": "uint256"
        }
      ],
      "name": "transfer",
      "outputs": [
        {
          "internalType": "bool",
          "name": "",
          "type": "bool"
        }
      ],
      "stateMutability": "nonpayable",
      "type": "function"
    },
    {
      "inputs": [
        {
          "internalType": "address",
          "name": "from",
          "type": "address"
        },
        {
          "internalType": "address",
          "name": "to",
          "type": "address"
        },
        {
          "internalType": "uint256",
          "name": "amount",
          "type": "uint256"
        }
      ],
      "name": "transferFrom",
      "outputs": [
        {
          "internalType": "bool",
          "name": "",
          "type": "bool"
        }
      ],
      "stateMutability": "nonpayable",
      "type": "function"
    }
  ],
  "bytecode": "0x60a060405234801561001057600080fd5b506100216301ffc9a760e01b610107565b610031636578737160e01b610107565b60408051808201825260078152660444558737761760cc1b6020918201528151808301835260018152603160f81b9082015281517f8b73c3c69bb8fe3d512ecc4cf759cc79239f7b179b0ffacaa9a75d522b39400f818301527f6a6f5684613219496cdd2a0ab3d28e0ea8c188284d27e24bf1d5bbe7fd5091e5818401527fc89efdaa54c0f20c7adf612882df0950f5a951637e0307cdcb4c672f298b8bc66060820152466080808301919091523060a0808401919091528451808403909101815260c09092019093528051910120905261018a565b6001600160e01b031980821614156101655760405162461bcd60e51b815260206004820152601b60248201527f4b495031333a20696e76616c696420696e746572666163652069640000000000604482015260640160405180910390fd5b6001600160e01b0319166000908152602081905260409020805460ff19166001179055565b608051610ed56101ac6000396000818161021301526105da0152610ed56000f3fe608060405234801561001057600080fd5b50600436106101165760003560e01c806342842e0e116100a2578063a9059cbb11610071578063a9059cbb146102c2578063b88d4fde146102d5578063d505accf146102e8578063dd62ed3e146102fb578063eb7955491461032657600080fd5b806342842e0e1461024a57806370a082311461025d5780637ecebe001461027d57806395d89b411461029d57600080fd5b806323b872dd116100e957806323b872dd146101ba57806330adf81f146101cd578063313ce567146101f45780633644e5151461020e578063423f6cef1461023557600080fd5b806301ffc9a71461011b57806306fdde031461015d578063095ea7b31461019057806318160ddd146101a3575b600080fd5b610148610129366004610a2c565b6001600160e01b03191660009081526020819052604090205460ff1690565b60405190151581526020015b60405180910390f35b610183604051806040016040528060078152602001660444558737761760cc1b81525081565b6040516101549190610a9d565b61014861019e366004610acc565b610339565b6101ac60015481565b604051908152602001610154565b6101486101c8366004610af6565b61034f565b6101ac7f6e71edae12b1b97f4d1f60370fef10105fa2faae0126114a169c64845d6126c981565b6101fc601281565b60405160ff9091168152602001610154565b6101ac7f000000000000000000000000000000000000000000000000000000000000000081565b610248610243366004610acc565b6103c1565b005b610248610258366004610af6565b6103df565b6101ac61026b366004610b32565b60026020526000908152604090205481565b6101ac61028b366004610b32565b60046020526000908152604090205481565b6101836040518060400160405280600681526020016504b6c61794c560d41b81525081565b6101486102d0366004610acc565b6103ff565b6102486102e3366004610bf0565b61040c565b6102486102f6366004610c58565b61057f565b6101ac610309366004610ccb565b600360209081526000928352604080842090915290825290205481565b610248610334366004610cfe565b6107a1565b60006103463384846107fa565b50600192915050565b6001600160a01b038316600090815260036020908152604080832033845290915281205460001981146103ab576103868382610d6b565b6001600160a01b03861660009081526003602090815260408083203384529091529020555b6103b685858561085b565b506001949350505050565b6103db8282604051806020016040528060008152506107a1565b5050565b6103fa8383836040518060200160405280600081525061040c565b505050565b600061034633848461085b565b6001600160a01b0384166104735760405162461bcd60e51b8152602060048201526024808201527f4b4950373a207472616e736665722066726f6d20746865207a65726f206164646044820152637265737360e01b60648201526084015b60405180910390fd5b6001600160a01b0383166104995760405162461bcd60e51b815260040161046a90610d82565b6001600160a01b0384166000908152600360209081526040808320338452909152902054600019811461054557828110156105165760405162461bcd60e51b815260206004820152601c60248201527f4b4950373a20696e73756666696369656e7420616c6c6f77616e636500000000604482015260640161046a565b6105208382610d6b565b6001600160a01b03861660009081526003602090815260408083203384529091529020555b61055085858561085b565b61055c85858585610963565b6105785760405162461bcd60e51b815260040161046a90610dc4565b5050505050565b428410156105be5760405162461bcd60e51b815260206004820152600c60248201526b1111560e881156141254915160a21b604482015260640161046a565b6001600160a01b038716600090815260046020526040812080547f0000000000000000000000000000000000000000000000000000000000000000917f6e71edae12b1b97f4d1f60370fef10105fa2faae0126114a169c64845d6126c9918b918b918b918761062c83610e12565b909155506040805160208101969096526001600160a01b0394851690860152929091166060840152608083015260a082015260c0810187905260e001604051602081830303815290604052805190602001206040516020016106a592919061190160f01b81526002810192909252602282015260420190565b60408051601f198184030181528282528051602091820120600080855291840180845281905260ff88169284019290925260608301869052608083018590529092509060019060a0016020604051602081039080840390855afa158015610710573d6000803e3d6000fd5b5050604051601f1901519150506001600160a01b038116158015906107465750886001600160a01b0316816001600160a01b0316145b61078b5760405162461bcd60e51b81526020600482015260166024820152754445583a20494e56414c49445f5349474e415455524560501b604482015260640161046a565b6107968989896107fa565b505050505050505050565b6001600160a01b0383166107c75760405162461bcd60e51b815260040161046a90610d82565b6107d233848461085b565b6107de33848484610963565b6103fa5760405162461bcd60e51b815260040161046a90610dc4565b6001600160a01b0383811660008181526003602090815260408083209487168084529482529182902085905590518481527f8c5be1e5ebec7d5bd14f71427d1e84f3dd0314c0f7b2291e5b200ac8c7c3b925910160405180910390a3505050565b6001600160a01b038316600090815260026020526040902054818110156108d25760405162461bcd60e51b815260206004820152602560248201527f4b4950373a207472616e7366657220616d6f756e7420657863656564732062616044820152646c616e636560d81b606482015260840161046a565b6001600160a01b03808516600090815260026020526040808220858503905591851681529081208054849290610909908490610e2d565b92505081905550826001600160a01b0316846001600160a01b03167fddf252ad1be2c89b69c2b068fc378daa952ba7f163c4a11628f55a4df523b3ef8460405161095591815260200190565b60405180910390a350505050565b60006001600160a01b0384163b61097c57506001610a0b565b604051634e8c461160e11b81526000906001600160a01b03861690639d188c22906109b19033908a9089908990600401610e45565b6020604051808303816000875af11580156109d0573d6000803e3d6000fd5b505050506040513d601f19601f820116820180604052508101906109f49190610e82565b6001600160e01b031916634e8c461160e11b149150505b949350505050565b6001600160e01b031981168114610a2957600080fd5b50565b600060208284031215610a3e57600080fd5b8135610a4981610a13565b9392505050565b6000815180845260005b81811015610a7657602081850181015186830182015201610a5a565b81811115610a88576000602083870101525b50601f01601f19169290920160200192915050565b602081526000610a496020830184610a50565b80356001600160a01b0381168114610ac757600080fd5b919050565b60008060408385031215610adf57600080fd5b610ae883610ab0565b946020939093013593505050565b600080600060608486031215610b0b57600080fd5b610b1484610ab0565b9250610b2260208501610ab0565b9150604084013590509250925092565b600060208284031215610b4457600080fd5b610a4982610ab0565b634e487b7160e01b600052604160045260246000fd5b600082601f830112610b7457600080fd5b813567ffffffffffffffff80821115610b8f57610b8f610b4d565b604051601f8301601f19908116603f01168101908282118183101715610bb757610bb7610b4d565b81604052838152866020858801011115610bd057600080fd5b836020870160208301376000602085830101528094505050505092915050565b60008060008060808587031215610c0657600080fd5b610c0f85610ab0565b9350610c1d60208601610ab0565b925060408501359150606085013567ffffffffffffffff811115610c4057600080fd5b610c4c87828801610b63565b91505092959194509250565b600080600080600080600060e0888a031215610c7357600080fd5b610c7c88610ab0565b9650610c8a60208901610ab0565b95506040880135945060608801359350608088013560ff81168114610cae57600080fd5b9699959850939692959460a0840135945060c09093013592915050565b60008060408385031215610cde57600080fd5b610ce783610ab0565b9150610cf560208401610ab0565b90509250929050565b600080600060608486031215610d1357600080fd5b610d1c84610ab0565b925060208401359150604084013567ffffffffffffffff811115610d3f57600080fd5b610d4b86828701610b63565b9150509250925092565b634e487b7160e01b600052601160045260246000fd5b600082821015610d7d57610d7d610d55565b500390565b60208082526022908201527f4b4950373a207472616e7366657220746f20746865207a65726f206164647265604082015261737360f01b606082015260800190565b6020808252602e908201527f4b4950373a207472616e7366657220746f206e6f6e204b49503752656365697660408201526d32b91034b6b83632b6b2b73a32b960911b606082015260800190565b6000600019821415610e2657610e26610d55565b5060010190565b60008219821115610e4057610e40610d55565b500190565b6001600160a01b0385811682528416602082015260408101839052608060608201819052600090610e7890830184610a50565b9695505050505050565b600060208284031215610e9457600080fd5b8151610a4981610a1356fea26469706673582212204c4d022324cabe48819eec27cd2f7eb10a536777d91f38d474c87701ef02abd164736f6c634300080c0033",
  "linkReferences": {},
  "deployedLinkReferences": {}
}